:0400000080311F2804
:100008007E14803120007F08F2000B1F1A2821007F
:10001800111C1A282000111C1A288031AA208031AE
:100028000A30F0000030F1008031D620720820003C
:10003800FF007E100900803121287E1020008031C9
:1000480025288031BA2080318B170B1722008E1497
:100058000E1503108C1E0314031C352822008C1661
:10006800372822008C126830890B382803102200A8
:100078008C1E0314031C432822008C1645282200DA
:100088008C1203100C1E0314031C4D2822000C169E
:100098004F2822000C126830890B502803102200C8
:1000A8000C1E0314031C5B2822000C165D2822007A
:1000B8000C1203108D1F0314031C652822008D17D2
:1000C800672822008D136830890B682803102200E6
:1000D8008D1F0314031C732822008D172A28220061
:1000E8008D132A2822008C018D018E010F302100EA
:1000F8008C0050308D0020308E0023008E0110308F
:100108008D0007308C00503024008D003F308C006B
:100118002100951322009D010800C030200098009E
:100128009901023097000C3096001708F80016085D
:10013800F700111021001114D730F3000030F4003B
:100148008031C62080318031D32008002000111072
:100158007808970077089600750876040319080050
:1001680076088A0075080A008031080080317620F8
:1001780080318031CF2080318031CB208031803177
:10018800912008007408F6007308F500080016307E
:100198002100970008004230210099000800200043
:0801A80018140800080008000B
:020000040001F9
:04000E00E4FFFFDF2D
:00000001FF
